:020000040000FA
:10000000480F00202D0A00004D0A00004F0A000092
:1000100000000000000000000000000000000000E0
:10002000000000000000000000000000D9010000F6
:1000300000000000000000007D020000DD02000062
:10004000570A0000570A0000910A0000570A0000F2
:10005000570A0000570A0000570A0000570A00001C
:100060002F0B0000510B00009D0B0000570A0000F1
:10007000570A0000570A0000570A0000570A0000FC
:10008000570A0000570A0000570A0000570A0000EC
:10009000570A0000570A0000570A0000570A0000DC
:1000A000570A0000570A0000570A0000570A0000CC
:1000B000570A0000570A0000570A0000570A0000BC
:1000C00000F002F800F040F80CA030C808382418FE
:1000D0002D18A246671EAB4654465D46AC4201D180
:1000E00000F032F87E460F3E0FCCB6460126334272
:1000F00000D0FB1AA246AB4633431847CC31000070
:10010000EC310000103A02D378C878C1FAD852070F
:1001100001D330C830C101D504680C6070470000BD
:100120000023002400250026103A01D378C1FBD813
:10013000520700D330C100D50B6070471FB5C046D1
:10014000C0461FBD10B510BD02F030FA1146FFF7D2
:10015000F5FF00F007FF02F048FA03B4FFF7F2FFE3
:1001600003BC02F049FA000080F309887047EFF3FE
:1001700009807047684680F3098806480078C00700
:1001800003D1032080F314887047022080F3148881
:10019000704700007C320000064B9C46EFF305835D
:1001A0001B0605D1EFF31483DB0701D000DF704796
:1001B00060470000AB260000064B9C46EFF305832A
:1001C0001B0605D1EFF31483DB0701D000DF704776
:1001D0006047000055280000EFF309808169891EFF
:1001E0000978002933D1A6461FC8A4467446E047C3
:1001F0001F4B06CB914224D0083B002910D00CB4F1
:10020000203101234B70EFF30983203B4B60F0C397
:1002100044464D4656465F46F0C302F053FE0CBCC2
:100220001A60203253681033F0CBA046A946B2467C
:10023000BB4683F30988203BF0CB5078002803D0DD
:100240001078EFF3098318600223DB43184710B5D9
:10025000084A1268914209D80748890040588646E2
:100260001FC8A446F047EFF309840FC410BD000077
:1002700074000020082600000826000002F008FD97
:10028000154B06CB914223D0083B0CB42031002300
:100290004B70EFF30983203B4B60F0C344464D465F
:1002A00056465F46F0C302F00DFE0CBC1A602032C9
:1002B00053681033F0CBA046A946B246BB4683F341
:1002C0000988203BF0CB5078002801D010781861C5
:1002D0000223DB43184700007400002002F0A2FE56
:1002E000CEE7000002F0E0F902F09CFEC8E7000053
:1002F00070B505460C46164602E00FCC0FC5103E01
:10030000102EFAD2082E02D303CC03C5083E042EC9
:1003100007D301CC01C5361F03E021782970641C86
:100320006D1C761EF9D270BD30B53048046A304D70
:100330002C400C4314430462416A090A0902194320
:10034000416230BD05200007C268012109070A4348
:10035000C260C2688A43C260704730B52348036AEE
:10036000FF24F134A3430362831500290BD01F4CF3
:10037000403465682D0A2D0215436560026A1943F1
:100380000A43026230BD016A1A431143016230BD63
:100390001648016AFF22F132914301627047CB0790
:1003A00012480222002B02D0036A134303628B0718
:1003B00002D5836A13438362490702D5C16A114398
:1003C000C1627047CB0709480222002B02D0036AA2
:1003D000934303628B0702D5836A93438362490781
:1003E00002D5C16A9143C1627047000000000E400F
:1003F000F3FBFFFFC10F8A00A74951188A68C306A3
:10040000DB0E0120984082438A607047A348F1E7E1
:1004100070B5430E1B070ED043009F4C9B0F9B00F3
:1004200010341B191C68C5002D0FC601F60EB5400F
:10043000AC430C431C60830A1906090E0ED001035D
:10044000954C890F8900183409190C68DBB28005B6
:10045000DB43C00E8340234013430B6070BDC10FCC
:100460008A008D4951188A68C306DB0E0120984026
:1004700002438A60704730B5044652010A43102097
:10048000024385484262854D2846FFF7E8FF002277
:1004900021462846FFF7BCFF30BD81480169042290
:1004A000114301617C480168FF22813211430160E0
:1004B00030BF70477A480169042291430161764850
:1004C000016880229143016030BF70477248006824
:1004D000C00700D07348704710B500F05DFA72484D
:1004E000006810BD10B500F057FA6F48006810BDE5
:1004F00010B5694A1369DB08DB0003431361906997
:10050000000900010843906100F046FA10BD10B5E3
:1005100004466649604A03E00B46491E002B03DD92
:10052000D36820469843F7D110BDF8B502005A4F62
:1005300008465F495B4C5F4D3B6A09D00B433B6209
:1005400000955D495D4B4118994205D8002613E09E
:100550008B433B620094F4E759495A4B4118994246
:1005600002D80126400007E05749574B41185B422B
:10057000994210D803268000544C214601F066FFB2
:1005800005462146009801F061FF044620462843B5
:10059000C00732D12AE0002A0ED04D48386204202C
:1005A000FFF7B5FF4BA000680090396A05200004F2
:1005B000014203D00020F8BD4748EFE7080301D50A
:1005C000284600E020468A03F5D40A04920F6B46C1
:1005D0009B5CCA058904D20DC90E921C891C800837
:1005E0005943504301F032FF8000F8BD022C04D083
:1005F000022D02D064086D08C8E701226102920250
:10060000B003891A0843A91E0843396A090C090472
:1006100001433962396A05200004814339620420AC
:10062000FFF775FF0098761C21467143684301F07F
:100630000DFFF8BD234910B5491C884202D8491066
:10064000884200D2084614490968C907014601D00A
:10065000002000E01648FFF768FF04460021022052
:10066000FFF746FF204610BD0B4A11693823994316
:1006700001431161704708490A6802430A607047E4
:1006800005490A6882430A6070470348016AC2014B
:10069000114301627047000000020050060020660E
:1006A00000ED00E0001BB7000800002090D0030020
:1006B0000000080000805101FF1E0AFAFFE0F50566
:1006C0007F0F05FD7FF0FA02C08782FE40420F00D7
:1006D0006FD60000010202042EC20000F0B5002314
:1006E00001273C469C400C4208D005685C0003266C
:1006F000A640B5431646A640354305605B1C082B53
:10070000EFD3F0BD10B58369140E8C402343836191
:10071000C3691202120A8A401343C36110BD826981
:1007200001238B409A438261C269024B8B409A43FA
:10073000C26170470100010010B588B00446202254
:1007400067496846FFF7D4FD664967488C4203D184
:1007500040694005400F10E0624920318C4203D1CE
:1007600040694004400F08E0604940698C4202D172
:100770004003400F01E04002400F022804D08000F7
:100780006946085808B010BD59480068FAE7F7B53F
:1007900006461746FFF7D0FF044600254008B8423A
:1007A00001D2022017E0012189068C4202D30725DD
:1007B000E4080CE0012149068C4202D30325A40879
:1007C00005E0012109068C4201D301250446394682
:1007D000204601F03BFE01992943316070606D1C99
:1007E00068430146204601F031FEFEBD0021016054
:1007F00041617047F8B50C460746FFF79DFF054677
:10080000002000903A482946006801F01FFE064685
:1008100000203860786137498D4205D87D20C000BE
:10082000844205D2044606E0642C01D2642402E02E
:100830008C4200D90C4630488D4207D8294601F039
:1008400005FE01467D20C000604317E02B4A95421B
:1008500003D90722ED0800920CE0294A954203D9FA
:100860000322AD08009205E0264A954202D90122F2
:100870006D080092FA2CE1D22046684301F0E6FDB3
:10088000786000980121401E890708433860002ED7
:1008900002D000BF761EFCD138688001FCD4F8BDC0
:1008A00010B543691624A3430B43134308210B439C
:1008B000436110BD4169082291434161704742691B
:1008C000520852000A434261016801221206114394
:1008D0000160704701680122120691430160704770
:1008E0004C320000000001400002005000001140A6
:1008F0000800002040420F0000CA9A3B0090D0033D
:100900000048E8010024F400FEE77047FEE710B558
:1009100002F094FC002805D0602148431749401894
:10092000603810BD164810BD10B5164A1168082968
:1009300000D3FEE70C234B43134C491C1B190360E7
:100940001846116002F012F9012010BDB0B504463E
:1009500002F074FC002804D00D4F0C49BC462068FE
:1009600000DFB0BDB0B5044602F068FC002803D03B
:10097000084F2068BC4600DFB0BD0000040900201D
:10098000E40C002004000020A40B0020FFFF000066
:10099000252C00007D2B0000F8B51D4D286944076B
:1009A0001CA000680090296A640F2813014201D03E
:1009B000002016E0080301D5174800E017488A0315
:1009C0000FD40A04920F6B469B5CCA058904D20DB2
:1009D000C90E921C891C80085943504301F036FD12
:1009E00080000F4E022CB06002D00E49A0000858C3
:1009F000A9690907090F491C01F028FD0A4930605F
:100A00004A10801801F022FD7060F8BD70470000A8
:100A1000000200500102020400805101001BB700D7
:100A2000080000209432000040420F000D480E499B
:100A300001600E4901600E4901600E4A0E491160C5
:100A4000002101600D4880470D480047FEE7FEE7A2
:100A5000FEE7FEE7FEE7FEE70A480B49094A0B4BB3
:100A6000704700000001005059000000160000000F
:100A70008800000024000050A55A00000D0A000064
:100A8000C1000000480D0020480F0020480D002044
:100A9000F0B50021F64804220262F64CA56A170759
:100AA000F54AF54E2032F5480B46002D0FD0A16ACD
:100AB000002906D03168394331601168394311602B
:100AC000C3604179002901D041698171F0BD34686A
:100AD000BC4334601468BC43146082684B2A1CD049
:100AE0008268282A02D382684B2A06D381680529A6
:100AF0000FD3816828290CD201210279521C02717E
:100B0000426952084261002903D00121C9025118EB
:100B1000416101790B2903D007E04371037104E0BF
:100B20004169C9094161012141718360C9E7D24826
:100B30008168C907C90F012909D18160CF4881683F
:100B40004B2901D34B2101E08168491C816070472A
:100B5000C94810B520308168C907C90F01291CD1C7
:100B60008160C64CE0680021962801D3E16002E074
:100B7000E068401CE060A079FF280ED0E06864289F
:100B80000BD3E160BE4801F0E1FE002803D0A1795B
:100B9000BB4801F06CFDFF20A07110BDB948816811
:100BA000C907C90F01290DD101228260B349086923
:100BB000142808D300200861CA71AE494031086189
:100BC000AC4882617047401C0861704700F089FFA3
:100BD000AB480122203801791143017101F0EEF890
:100BE00001F00CF901F04FF901F064F901F08FF90F
:100BF00001F0C2F9A248203800F0B7FF00F0C8FEAB
:100C000000F04EFEA04F6420BC4600DFE6E79848A7
:100C1000012210214030FFF761FD9548012240215B
:100C20004038FFF75BFD012280219148FFF756FD18
:100C300001F0ACFB01F0D8FB00F0D2F98D4D00249F
:100C4000EC638C4E012040363061AC6100F097FDC2
:100C50008A480078012809D06C60AC60EC602C6197
:100C60003460894F6420BC4600DFEFE700F08FFF5F
:100C700001F0D6FAF5E708B500257E4C0126844F31
:100C8000824A69467E48BC4600DF7C49C879002814
:100C90000ED0009AFF2A03D0FF22401C0092C87198
:100CA000C0B2032804D1734840300661A561CD71FC
:100CB0000098042837D00EDC002822D0012829D043
:100CC0000228DCD1E663704F5020BC4600DFE563AC
:100CD00000F09CFBD3E710280AD01828CFD1E66398
:100CE000694F5020BC4600DFE56300F06EFAC6E7AE
:100CF000E663654F5020BC4600DFE56300F0B8FABC
:100D0000BDE7E663604F5020BC4600DFE56300F0BE
:100D100002FBB4E7E6635C4F5020BC4600DFE563AE
:100D200000F0A6FCABE7E663574F5020BC4600DF5F
:100D3000E56300F02CFCA2E700F03AF9FF2400F094
:100D400076F9FF2803D084420AD0044608E0FF2C3D
:100D500006D0504F142221464948BC4600DFFF24EC
:100D6000494F0A20BC4600DFE9E7414801228021C3
:100D70008038FFF7B3FC3F4901204039C863024681
:100D800001463B484038FFF7A9FC01F03DF901F06E
:100D90006FFA3A4C2078012838D1A078012803D086
:100DA000607800281BD031E00020A0703348183054
:100DB00001F08CFA012821D130480A2218308178BC
:100DC0000A235143C2788918027840785A4315188B
:100DD000084600F036FF284600F06FFF0EE0E0788E
:100DE000012802D0002805D00EE00220E07001F0BA
:100DF00054F903E02848007801F038F920780128F8
:100E000004D16078002801D101F0B1F91E4F6420AF
:100E1000BC4600DFBEE7214F08210020BC4600DFB2
:100E20001F4F60211648BC4600DF00231E4F1A46A4
:100E300003211C48BC4600DF00231A4603211B483F
:100E4000BC4600DF00231A4604211948BC4600DFD7
:100E500000231A4604211748BC4600DF00231A4627
:100E600006211548BC4600DF144F0020BC4600DFB9
:100E7000C0400050404200500000014014000020DB
:100E8000240C002000001140FD270000FFFF00009F
:100E9000BD2A0000212A00006D000020B9310000A9
:100EA000552900000F0C0000A13000006B0D000060
:100EB000770C0000390D0000CD0B00001D31000043
:100EC00070B5592016212D4C882202E02060216047
:100ED00022602368012BF9D10420FFF7CCFB1020FE
:100EE000FFF715FB00210720FFF702FB0120FFF7AA
:100EF000C2FB0120FFF70BFB214D2846FFF79AFBB1
:100F0000214E2048B060032252040C211F48FFF7F5
:100F10007FFA3920400370611D481F4905601D4854
:100F20000560322008601D48426860210A43426023
:100F300005200007C26B1A4B1A40C263C26B04251E
:100F40002A43C263426B174E32404263426B0A43EC
:100F50004263C16B1940C163C16B2943C163002067
:100F6000206070BDFFF7ACFFFFF704F90F4F0022C0
:100F700011460D48BC4600DFFEE7000000010050AE
:100F800080F0FA021C000010000200501CFE232614
:100F900010000020080000200C00002040400050FD
:100FA000FBFBFFFF9F9FFFFF170E0000FD2E0000C1
:100FB00010B500220221F748FFF790FBF54C002204
:100FC000C03C02212046FFF789FB00220421204675
:100FD000FFF784FB002208212046FFF77FFB10BDAE
:100FE00010B5EC4C0122403C02212046FFF776FB75
:100FF000012204212046FFF771FB0122082120462F
:10100000FFF76CFB012210212046FFF767FBE14848
:10101000012211464030FFF761FBDF4900204860A4
:101020008860C8600861DC494031086010BDDA485A
:10103000406A002803D0D9490020086046E0D6481D
:1010400040384168002905D18168002902D1C16872
:10105000002903D04168002902D007E0182070471A
:101060008168002902D1C168012903D041680029A3
:1010700002D007E0102070478168012902D1C168C1
:10108000002903D04168002902D007E00020704702
:101090008168012902D1C168012903D04168012971
:1010A00002D007E0012070478168002902D1C168A1
:1010B000002903D04168012902D007E004207047CD
:1010C0008168002902D1C068012801D0FF20704743
:1010D00002207047B2480822017E114001760021AB
:1010E0004176837E13408376C1760177C171417169
:1010F000837913408371037B134003734173837BB4
:1011000013408373C17301744174837C13408374EF
:10111000C174037D1340037541758175C1757047B6
:1011200070B59F4800220270037A0E21447A0B406A
:101130000C4081794907490F8171C578FD210D4027
:10114000867BF7210E406D0886736D00C57085782B
:101150002D092D0185704270057E0D400576857E36
:101160000D408576057B0D400573857C0D400D2176
:101170000C40A407A40F85740B4044729907C272F7
:10118000890F0172827270BD834901228A6000203A
:10119000C860086183498871C8710A7270477E49C6
:1011A000002088600122CA6008617E498871CA7186
:1011B00008727047784900208860C86001220A617F
:1011C00078498A71C8710872704770B576480024F2
:1011D0000078012819D0704E0122403632616E4DE0
:1011E000AC616F48F323C1781940C17001790909D6
:1011F000090111430171FFF793FF6C60AC60EC6073
:101200002C613460FFF766FF70BD664908790128DC
:10121000FAD10878401CC0B20870032800D10C70C5
:101220000878002803D0012804D0022805D0FFF751
:10123000ABFF70BDFFF7BEFF70BDFFF7B0FF70BD25
:1012400058490120C872544940310860544802226C
:10125000C1781143C170704752490020C8724E498D
:10126000403108604E48FD22C1781140C17070477E
:1012700070B54D4800240078012819D0464E01224F
:1012800040363261444DAC614548F323C178194082
:10129000C17001790909090111430171FFF740FF8C
:1012A000FFF718FF6C60AC60EC602C61346070BDBF
:1012B0003C4908790128FAD14878401CC0B24870EE
:1012C000022800D14C704878002804D00128EED1C3
:1012D000FFF7B6FF70BDFFF7BFFF70BD2E480121BD
:1012E00041603048082381722D48827B1A43827303
:1012F000C2780A43C27070472749002048602949D4
:10130000F72288722648817B11408173C178490891
:101310004900C170704770B5234800240078012847
:1013200019D01D4E0122403632611B4DAC611C4864
:10133000F323C1781940C1700179090909011143EA
:101340000171FFF7EDFEFFF7C5FE6C60AC60EC606D
:101350002C61346070BD134908790128FAD188786E
:10136000401CC0B28870022800D18C708878002898
:1013700004D00128EED1FFF7B1FF70BDFFF7BCFF2D
:1013800070BD0A493C2008600949012008600949EC
:1013900008707047C04000504042005024000020B8
:1013A000040C00205D000020140000203400002008
:1013B0003C000020310000202D20FF490001086082
:1013C000FE4901200860FE490870E2E7FF20FA4963
:1013D000E1300860F94901200860F9490870D8E750
:1013E000F549F0200860F64901200870F3490860CB
:1013F000CFE7F14978200860F04901200860F04902
:101400000870C6E7EE4900200870C2E770B5ED48E5
:10141000012200780024012818D0EB4E3261EA4DF9
:10142000403DAC61E948F323C1781940C1700179AE
:101430000909090111430171FFF772FEFFF74AFE26
:101440006C60AC60EC602C61346070BDE049487A3F
:101450000028FAD1C878401CC0B2C870062800D154
:10146000CA70DC480260DC480460DC480260DC488A
:101470000260C878030001F0C9F80604070A0D10DD
:101480001307CF48047070BDFFF77BFF70BDFFF7F7
:10149000B0FF70BDFFF7A4FF70BDFFF797FF70BDF1
:1014A000FFF78AFF70BD30B5C94C01256572FFF7A3
:1014B0006BFE00232370FFF7CFFE6370FFF71CFF66
:1014C000C248A370027B08210A430273827C0A434C
:1014D0008274042282704278120912014270BD4A5D
:1014E0001560BD4A1360BE4A1560B54AF7251370F2
:1014F000027E847E2A400A402C40027643760C40CD
:101500008476C3760377C371437182790A4082710E
:10151000427A02210A434272027A0A43027230BDC1
:1015200070B5AB4D00266E72FFF72EFEFFF788FEFA
:1015300001246C70FFF7D2FEA648AC700460A64888
:1015400002210660A54808220460A54804609F485F
:10155000C378867B0B43164386732343C370037B98
:1015600013430373837C1343837442780F231A431A
:1015700042708278D208D2008270427A0A43427264
:10158000027A0A430272EC70FFF7FBFE70BD70B581
:101590008C480024007801281DD092480078022849
:1015A00019D0894E01223261874D403DAC61874898
:1015B000F323C1781940C170017909090901114368
:1015C0000171FFF7ADFDFFF785FD6C60AC60EC606D
:1015D0002C61346070BD7E490879401CC0B208712E
:1015E000022800D10C710879002804D00128F1D11B
:1015F000FFF759FF70BDFFF793FF70BD79490120D8
:10160000087079490860C4E6714900200870487084
:101610008870C870087148716A4A48721070887280
:101620008871C87108726F490870654908706F4900
:1016300008706F4908706F4908706F490870A8E614
:1016400010B5614B002018615F49012240398A6161
:1016500048608860C860086118605B488038C26371
:101660000A6000F035FAFFF7CFFFFFF733FD10BD3A
:1016700057494879401CC0B24871022801D1002066
:1016800048710006000E02D0012801D1B6E7D7E765
:101690007FE64E480721027E0A430276437E0F22F0
:1016A00013434376837E0B438376C37E1343C37613
:1016B000037F0B430377C3791343C3714379134308
:1016C000437183790B438371037B0B430373437B28
:1016D00013434373837B0B438373C37B1343C373F2
:1016E000037C0B430374437C13434374837C0B439D
:1016F0008374C37C1343C374037D0B430375437D21
:1017000013434375837D0B438375C17D1143C175BD
:101710003FE6F0B52D480F220178012311430170F7
:10172000017A847919438C46457A08210C438471E7
:10173000C678877B022426430F4387731E431D43CD
:10174000C670837807263343837043782543134359
:101750004370037E0B430376837E0B438376037BC8
:101760000B430373837C0B4383740C231D4361463B
:1017700045722143C272194301728272F0BDF0B505
:10178000124C184827790278E5780C200F26394644
:10179000012328433143012A4AD0124E022A54D051
:1017A000084D164F032A5FD0042A40D12B70034AFC
:1017B0003B701360074A23E0340000203C00002007
:1017C000310000201400002080420050040C002052
:1017D0005D000020440000204C000020500000204C
:1017E0005800002015000020400000204900002083
:1017F00048000020540000205C000020160000205B
:101800001360824A00251560814A1360814A136083
:10181000814A1370814A1370814A1570814A15708C
:10182000814A1570E0702171FFF73DFE3570F0BD03
:101830007E4A13617D4B0022403B9A61E07021712A
:10184000FFF767FFFFF725FFF0BDF32005403809DC
:10185000E57000012071FFF763FC20790221084345
:101860002071FFF737FCF0BD2B706D4A3B700025EF
:1018700015706F4A13606F4A1360644A1560644ABA
:101880001360644A1360644A1370644A1370654AB3
:101890001570654A1570E0702171FFF741FEC5E7CC
:1018A000FCB56548007801283BD1644908468E792B
:1018B000C279037A012E03D0012A01D0012B30D145
:1018C000487B052801D3002000E0401C48735C4899
:1018D0000E21447A0E25A4460C40017A019129403C
:1018E000857908273D430095654601273D43534FC1
:1018F000012E02D0002E17D01AE0002A18D1002B9A
:1019000016D17A7B130000F081FE062A3F043D06C3
:10191000410C09222DE0052101700199012211439A
:101920000172FCBD0170FCBD012A01D1002B0DD05C
:10193000424D1643F7D1012BF5D16A7B130000F01D
:1019400065FE061B212323252504ECE77A7B130083
:1019500000F05CFE0605181A0E1C1C04E3E70322C7
:1019600002700E22009B1440837144721140D7E72D
:10197000052202704572D3E703220270009A827139
:101980004472CDE70321CDE70521CBE70921C9E763
:1019900070B529482A49007800268B78012804D0A0
:1019A0001809000188704E7070BD244D244A687A71
:1019B0005278002807D00128F6D104208870100939
:1019C0000001487070BD287B0324032801D32E73C7
:1019D00011E0401C0006000E28730CD001280CD02A
:1019E00002280CD003280CD00F200243D8084A70DC
:1019F000C000887070BD0E2004E0072002E00B20BC
:101A000000E00D2048708C7070BD00004C0000207C
:101A100050000020580000206C0000206D000020C5
:101A200017000020480000205C0000208042005089
:101A30003C00002044000020140000205D00002035
:101A4000040C00200020401CC0B2C828FBD3704703
:101A500070B5002203461646CC4C01250EE06661A7
:101A6000D80901D0A56100E0A661FFF7EBFF656131
:101A7000FFF7E8FF5806030E521CD2B28A42EED39B
:101A800070BD30B5C14C0021054621610421802084
:101A9000FFF7DEFF08212846FFF7DAFF012020616B
:101AA00030BD70B50446B94D00200E4628610321B3
:101AB000A020FFF7CDFFA006000E0621FFF7C8FF0C
:101AC0003007000E0421FFF7C3FF0120286170BD1D
:101AD0000020AF4A01461154401CC0B22028FAD35E
:101AE0007047B0B5AB4C012210212046FEF7F6FD41
:101AF000012220212046FEF7F1FD0122402120464F
:101B0000FEF7ECFDA1480121016141618161A24F15
:101B10007D20C000BC4600DF5220FFF7B2FF30201E
:101B2000FFF7AFFF0020FFF7ACFF0A20FFF7A9FF88
:101B30000220FFF7A6FF0620FFF7A3FFB0BD70B598
:101B40000546924C00200E4620610321A020FFF79D
:101B50007FFFA806000E0621FFF77AFF0821304616
:101B6000FFF776FF0120206170BD30B505460024E7
:101B700029782046FFF795FF641C6D1CE4B2202CE9
:101B8000F6D330BD000970470007000F7047F8B565
:101B90008248007801284CD181484B210068C90057
:101BA000054600F053FCC7B23C21284600F04EFC2D
:101BB00000910A2100F04AFC0E460A21009800F02C
:101BC00045FC04460A21009800F040FC754A8C460A
:101BD000D15D08230F096E481F4309070776090FD7
:101BE0004176915D0E091E4386760907090F6E4EF8
:101BF000C17637780021012F1CD0165D36091E43AF
:101C00000677125D64461207120FC271654A0A3ADE
:101C1000125D14091207120F44711A43827163484E
:101C20000278012A05D101705D48002D06D06D1E95
:101C30000560F8BD3170165D3609E1E7FFF700FD7C
:101C4000F8BDF1B582B06421029800F0FFFBC4B288
:101C50000A21029800F0FAFB52480091005D082624
:101C600001094B4D314300072973000F6873504839
:101C70004C4F04780A21029800F0E8FB0A2100F09A
:101C8000E5FB785C012C02D0002C03D004E00109B4
:101C9000314300E00109A9730007000FE8734149CF
:101CA00000983D4F085CBC46010931430007297488
:101CB000000F6874642000DFFEBDF8B5054664219E
:101CC00000F0C4FBC4B20A21284600F0BFFB0E4658
:101CD0000A2100F0BBFB334B0D461A5D3146160955
:101CE00008242B48264312078674120FC2745A5DCB
:101CF000294F150912070575120F4275595CBC462C
:101D00000A09224309078275090FC175642000DFA3
:101D1000F8BD1F4902234A7A1A434A7225490D2801
:101D200001D801200AE002460E3A0A2A01D80B70B7
:101D30007047192801D9032000E00020087070477F
:101D4000F0B5134A0224117A0C25214300261A4BC0
:101D50001172232804D3294311729672012010E0D6
:101D600007461D3F052F05D28807800F1072957218
:101D70001C70F0BD1C2806D28807800F107203204B
:101D800090721870F0BD1E70F0BD0000004200504F
:101D9000040C002000400050FD270000310000200E
:101DA00034000020BE32000039000020380000203E
:101DB000670000206C0000206D000020F8B57A4814
:101DC0000078012815D1794CFF212068F3310746AE
:101DD00000F03CFB0125764E00290BD00A21384645
:101DE00000F034FB20460068401C0029206000D130
:101DF0003570F8BD6F4825600570F9E7F8B56F4A92
:101E00006D4E1068317801250027441C6C4B012968
:101E100010D002291BD01B78194313D169490969D5
:101E200001290FD1FF21F331164600F00FFB0029E5
:101E300022D01AE01F702821174600F007FB002966
:101E400001D03C60F8BD02203D603070F8BD5E49B5
:101E50001F700978012902D1574904230B702821EA
:101E6000164600F0F3FA002901D03460F8BD52485C
:101E7000032135600170F8BD524835600761514853
:101E800040388561F8BD70B5504E3078012809D1D1
:101E9000504C4F492068054600F0D8FA002902D07E
:101EA0006D1C256070BD01200021206031704A4901
:101EB000087070BDF8B54248007801281BD1474D25
:101EC00043492868009000F0C1FA01270026444CDD
:101ED000002911D0FF21F331009800F0B7FA28460D
:101EE0000068401CF9290FD00029286003D135482B
:101EF00026708038C663F8BD3A482F6007703148B5
:101F00008038C6632670F8BD28602770F8BDF8B524
:101F10002B48007801280ED12B48007800280AD1E0
:101F2000314C01272078314E012803D1304D2878DB
:101F3000012801D03760F8BD30682E49009000F0CC
:101F400085FA002903D00098401C3060F8BD1D4977
:101F50000020376008602849FD23CA7820701A40A5
:101F6000184B403B58608B7BF724234052088B73FF
:101F70005200CA702870F8BD70B5204E3078012824
:101F800009D11F4C12492068054600F05FFA00296C
:101F900002D06D1C256070BD0120002120603170D1
:101FA0001849087070BD0000310000203C0000207E
:101FB00039000020380000201500002040000020DB
:101FC00014000020804200506600002049000020DC
:101FD000BA09000044000020480000204C00002006
:101FE000170000201600002068000020500000208C
:101FF0006700002070E90000040C0020540000205D
:10200000580000205C00002010B5D34C60230C2247
:1020100000212046FEF788F9216A01200143216250
:10202000206310BDCC48016A0122D2021143016233
:10203000016BC907FCD0012101634069C74980B227
:10204000486032214843000B7047C348016A0122AF
:10205000D20211430162016BC907FCD00121016367
:102060008069322180B24843000B7047BC4A0C2380
:10207000117A01280AD01146097A8907890F0228A6
:1020800008D0032801D11172907270471943117260
:102090000020F9E711729372704770B5B0480222C0
:1020A000017A0024114301722346FFF7CEFF241862
:1020B0005B1C022BF9DBE00F00194010232801DB29
:1020C00001200AE001461D39052901D2022004E061
:1020D0001C2801DA032000E00020A0494E780022ED
:1020E000A04DA14B0124864202DA2C601A700FE049
:1020F0004E78864211DD9D481C700378012B12D169
:1021000002704878012801D84C7002E04878401EDF
:1021100048704878FFF7AAFF05E04E78864202D162
:102120002C601A70F5E79248C46370BD8C4A0C238A
:10213000517A01280AD01146497A8907890F022865
:1021400008D0032801D15172D072704719435172DF
:102150000020F9E75172D3727047002204E0002199
:10216000491C0A29FCD3521C8242F8D37047FEB5A1
:10217000FF201930009000262820344601250190C8
:102180007B4B0020403318600098FFF7E6FFFFF715
:1021900049FF07460198FFF7E0FF1D60F619754FEC
:1021A0000A20BC4600DF641C642CE9DB6421304655
:1021B00000F056F90D2801DC01200AE001460E3935
:1021C0000A2901D8022004E0192801DD032000E0DB
:1021D000002062490C78684B684A844203DA1D602B
:1021E0000023137010E00C78844212DD64481570EF
:1021F0000278012A0CD1002202700878012801D847
:102200000D7002E00878401E08700878FFF78EFF16
:10221000FEBD0C788442FBD100201D601070F4E7F5
:1022200010B55848007800280CD14C480178012995
:1022300002D14178012903D00178022903D005E0B9
:10224000FEF7A2FF10BD4178032905D3417802298A
:1022500005D10178032902D2FEF7A1FF10BD017854
:10226000032902D040780328F8D1FEF7A3FF10BD60
:1022700010B5012220214448FEF730FA3C490120E4
:102280004031486110BDF0B5394D00244035072775
:102290002346012668690028FCD02320FFF75DFF54
:1022A0006869012809D0F91A3046884084435B1CCC
:1022B000DBB2082BEED32046F0BD68690128FCD0C4
:1022C000F91A30468840C0B20443F0E7F8B5044636
:1022D00000F03BF8264D002040356861254F122064
:1022E000BC4600DF01266E611920FFF736FF002291
:1022F00020212548FEF7F2F96869002823D1686992
:102300000028FCD068690128FCD0FFF7BCFF2070D2
:10231000FFF7B9FF6070FFF7B6FFA070FFF7B3FFDC
:10232000E070FFF7B0FF207100F00FF86E612078C9
:102330006178E2784018A17889184018217988429C
:1023400001D10120F8BD0020F8BD10B501222021E7
:102350000D48FEF7C3F910BD00000E406C000020D0
:10236000040C002058000020540000205C000020D5
:1023700000420050FD2700004400002049000020DA
:1023800048000020660000208040005070B5012603
:10239000264CF606244A31462046FEF7F8F9226814
:1023A00065032A432260214C214A203431462046CD
:1023B000FEF7EDF92168294321601E4C0A223146BF
:1023C0002046FEF7E4F9206828432060082000F04A
:1023D00023F8092000F020F80A2000F01DF82068FA
:1023E000A1030843206070BD10B5134C00220421E6
:1023F0002046FEF773F9114A02212046FEF782F9C2
:10240000022000F009F80C483021C03001606169F9
:1024100004200143616110BDC106C90E012088403E
:10242000074908607047000050C3000000000140E9
:102430001027000000001140C040005001000100C2
:1024400000E100E000487047E40C0020002203098E
:102450008B422CD3030A8B4211D300239C464EE0BF
:1024600003460B433CD4002243088B4231D303097B
:102470008B421CD3030A8B4201D394463FE0C3092D
:102480008B4201D3CB01C01A524183098B4201D345
:102490008B01C01A524143098B4201D34B01C01A30
:1024A000524103098B4201D30B01C01A5241C308A8
:1024B0008B4201D3CB00C01A524183088B4201D317
:1024C0008B00C01A524143088B4201D34B00C01A03
:1024D0005241411A00D201465241104670475DE018
:1024E000CA0F00D04942031000D34042534000229B
:1024F0009C4603098B422DD3030A8B4212D3FC2244
:10250000890112BA030A8B420CD3890192118B42C2
:1025100008D3890192118B4204D389013AD09211D8
:1025200000E08909C3098B4201D3CB01C01A524193
:1025300083098B4201D38B01C01A524143098B425C
:1025400001D34B01C01A524103098B4201D30B0145
:10255000C01A5241C3088B4201D3CB00C01A52416A
:1025600083088B4201D38B00C01A5241D9D2430851
:102570008B4201D34B00C01A5241411A00D201468E
:10258000634652415B10104601D34042002B00D5F8
:102590004942704763465B1000D3404201B50020BA
:1025A000C046C04602BD7047704770477546FFF78A
:1025B00049FFAE46050069465346C008C00085463F
:1025C00018B020B5FEF748FA60BC00274908B646A7
:1025D0000026C0C5C0C5C0C5C0C5C0C5C0C5C0C532
:1025E000C0C5403D49008D4670470446C046C046C0
:1025F0002046FDF7B2FD000001491820ABBEFEE702
:1026000026000200704700000000000030B474464D
:10261000641E2578641CAB4200D21D46635D5B00DE
:10262000E31830BC184710B5002A06DA52005208E9
:10263000D21DD308DB00102203E0D21C93089B00BC
:102640000C22002B02D09C188C4201D9012010BD15
:1026500082188360411802604160C91AD01888420C
:1026600002D810600246F9E70020106010BD10B5D6
:1026700000F056FB00F044FB10BD00000748016865
:102680000748416100218161072101610548016A14
:10269000FF22120611430162401770477832000092
:1026A00000E000E000ED00E070470146EFF310802D
:1026B000C207D20F72B60868002801D003680B6009
:1026C000002A00D162B6704770B50D4600280FD0C1
:1026D0000849094C884204D222680146104600F09D
:1026E0003FFB20684570054800F0C7F800F0FEFB8E
:1026F00070BD0000FFFF000074000020B40C00203B
:1027000010B50E480C4942680D480B6800689342AA
:1027100004D00A60CB88421E9A188A808A8880B2C8
:10272000824208D100200860044800F0A6F8014663
:10273000024800F03DFB10BD88000020B40C0020D2
:102740007C00002070B51B4DE868002831D0A88AB5
:10275000401EA882002626E0A068002808D06168F4
:1027600041606068002802D0A16881606660A66050
:1027700010482146183800F01BFBA08AA882607818
:10278000042804D10C49E08A09684018A08201207D
:10279000607020210855E068E860E068002801D0FA
:1027A0000561E6602661A88A002802D1EC68002C49
:1027B000D2D170BDCC0C00207C00002070B504008C
:1027C0000ED00C4DA17828680126827891420BD951
:1027D00000F00CFB28684670204600F087FB70BDB7
:1027E000054800F04AF8F8E766702146024800F014
:1027F000DFFA70BD74000020B40C002010B5032176
:10280000FFF762FF10BD000010B50446008B0843BF
:1028100020836278618B062A15D0052A12D10A46D8
:1028200010420FD00240628388432083204600F08C
:10283000FFFA012060700221202001552146044842
:1028400000F0B6FA10BD0A468243EDD010BD00007C
:10285000B40C0020814202D342688A4201D8012090
:102860007047EFF31082D207D20F72B603680B6085
:10287000016000D162B6002070470146406842689E
:102880004A600B780022022B05D0012B03D0032BCA
:1028900001D0426070474368002B01D099604260CC
:1028A0008260704770B504461546002020700122F2
:1028B0006270A1706060A060E0602061A082E08230
:1028C000208323466083203318705870608C002862
:1028D00003D10448FFF7E9FEA0622946204600F034
:1028E0000FF870BDF8010020034800210160034982
:1028F0000968C18070470000880000207432000021
:1029000030B5428C920803D10E4A12681204920C20
:10291000836A92009A18530700D5121F403A012388
:102920001B06D363002391631C469D005B1C54511E
:102930000E2BFAD3C36913624262C162806A0249F4
:10294000016030BD70320000A52E5AE2C189808935
:10295000081A704701220270002242704260028110
:1029600042818281024A89038918090CC18170471A
:102970000000FCFFF8B50446406800260F4600281A
:1029800005D06078022818D0A08900282FD0A0890F
:10299000E18988423ED2208980000019076172B621
:1029A000A089401CA08162B62089401C80B2208191
:1029B000E189884200D12681F8BD66702046FFF784
:1029C0005CFF0546203006702189E86989000919F5
:1029D000086172B6A089401CA08162B62089401CA3
:1029E00080B22081E18988420AD1268108E0204610
:1029F000FFF743FF0546C0690421076020204155C9
:102A000001206870284600F013FA2946034800F0B8
:102A1000CFF9F8BD0320FDF779FFF8BDB40C002015
:102A2000F8B50C461746416800268289224D0029D8
:102A300001D0002A0CD0C3899A422AD1002F19D084
:102A40001D4A0029126817D0114600F0B1F919E0AB
:102A5000FFF713FF0746C069042104602020C15519
:102A6000384600F0E5F93846FFF7A8FE2868203020
:102A700006701FE00120F8BD426029684E60886042
:102A80000121417028680821C4613846FFF71CFE07
:102A9000F0E70189890009180C6172B68189491C27
:102AA000818162B60189491C89B20181C289914242
:102AB00000D106810020F8BD74000020F7B504465F
:102AC00080890025284F0E46002833D06089800079
:102AD0000019006908606089401C80B26081E1894A
:102AE000884200D16581606800281CD02046FFF72D
:102AF000C4FE0646203005702189F0698900091955
:102B000008612089401C80B22081E189884200D17F
:102B10002581304600F08CF93046FFF74FFE3868CB
:102B20002030057004E072B6A089401EA08162B614
:102B30000020FEBD0298002808D00B496068096893
:102B4000002805D0204600F033F905E00120FEBD45
:102B5000616038684560846008210298FFF7B4FD21
:102B60003868C661F2E7000074000020032101709C
:102B7000002141704180416081607047F8B5054691
:102B80004088002804D0254CA9682268914201D0D1
:102B9000FF20F8BD401E0004000C68803BD1216876
:102BA000687888706A680127002A28D02846FFF7CD
:102BB00064FE0646052120300170304600F038F9E9
:102BC0006F80AE60B07868701548216840688A7878
:102BD0008078824201D330460AE0114800F0E8F8DC
:102BE00031460F4800F0E4F820684770777010E035
:102BF000FFF7E4FD21680020203108700BE0084A4F
:102C000052689278824206D9054800F0D1F82068CF
:102C100047700020ECE70020F8BD000074000020A1
:102C2000B40C002070B50E46184D04464188286843
:102C3000002907D0A168814208D16088401C6080CB
:102C4000002070BDA06080786070F6E7002E0FD085
:102C500062788078824203D28870A06800F0D0F851
:102C60006068002806D02046296800F0A1F807E037
:102C7000012070BD28686060286800218460416080
:102C800009213046FFF720FDF2E700007400002024
:102C900070B5184801210068417000F0A7F8164C83
:102CA000657813E0E800011948680278002A17D017
:102CB000012A1AD000F0ECF8E0786D1C854200D1B2
:102CC000002572B6A078401EA07062B6A0780028D9
:102CD000E8D165700948FFF7D0FD00F007F970BD35
:102CE000896889B2FFF790FDE6E78968FFF742FE41
:102CF000E2E700007400002048080020B40C002027
:102D000005480178002902D0012141707047012057
:102D100002490007486070478000002000ED00E095
:102D200070B50E4BDD789C1C1E4672B69A78AA428E
:102D300007D2521C22703278541CAC4200D10024BD
:102D4000347062B6DC78944204D9D200D218916013
:102D5000506070BD0220FDF7D9FD70BD480800200D
:102D600010B5124AD368002B17D013469B8A04E093
:102D7000002C12D02246A48AE318D4688B42F7D3E1
:102D8000C460D0600261C468002C00D02061591A70
:102D90008182908A401A908210BD0024C460D06065
:102DA000C91A02619182848210BD0000CC0C0020FF
:102DB00030B502780023022A03D0012A01D0032A69
:102DC00000D101238C7800E010464268002A02D02E
:102DD0009578A542F8D24A604160002B04D0002AC1
:102DE00000D09160886030BD0020FBE703494A684D
:102DF000426000228260486070470000B40C0020EE
:102E000010B583680446002B05D1607801280CD1E9
:102E1000064B03E09B6818780028FBD0204600F0A2
:102E20001DF821461846FFF7C3FF10BDB40C002063
:102E300010B5016900290FD0C268CA60C3680022BA
:102E4000002B07D08B8A848A1B198B82C368196177
:102E5000C26000E08A82026110BD00008168002922
:102E600007D042684A604168002901D080688860C4
:102E70007047064906E04A68824202D140684860CD
:102E8000704711460029F6D170470000B40C0020AD
:102E900010B5416800290ED0FFF7EFFC0446FFF79C
:102EA000C7FF0120607003212020015521460448FE
:102EB000FFF77EFF10BD4188491C418010BD000016
:102EC000B40C002010B507480068416A806A81424E
:102ED00003D300680449884202D00120FDF716FDA3
:102EE00010BD000074000020A52E5AE2024948607F
:102EF000022141707047000074000020F7B50646BB
:102F000000200446334A344902E08300D450401C78
:102F10000B889842F9D33148302201883048FFF7B6
:102F200082FB304801210068C90780B242182E4850
:102F300001682E48FFF777FB2D48082201882D48AD
:102F40000068FFF770FB2C4FFF25FD707C842B4A37
:102F500000213846FFF7A6FC29480421017044608F
:102F600028480170C46004618482786A2030FDF7CB
:102F7000FBF8254826490760022078702348047032
:102F800044700978C170FFF7AFFC2248016A2A0437
:102F900011430162C169026A5202920E9206114304
:102FA000C161FFF76BFB1C49002808600BDB1B4964
:102FB00041180D70C206D20E012191404011184AED
:102FC00080008018016000233046029A019900F0C9
:102FD00067F8FEBDCC0800206C320000883200008B
:102FE00098000020703200008C320000F8010020B0
:102FF0009232000000000020840C0020090900002B
:10300000B40C0020CC0C00207400002048080020E4
:103010009032000000ED00E08400002000E400E0B9
:1030200000E100E010B50B48012100684170FFF796
:10303000DDFEFFF765FB08480168491C0160FFF7EA
:1030400081FB00F00DF80548FFF717FCFFF74EFF76
:1030500010BD0000740000207C000020B40C002093
:1030600070B50D4C2068002815D0A0880B4E401E6E
:10307000A0800AE0E888FDF748FCA888A0802868BE
:10308000206029463068FFF7E5FBA088002802D1C0
:103090002568002DEED170BD9000002000000020BA
:1030A000FFB5080681B00C4616461F46000E00D13B
:1030B0004C1C1648FFF7F9FA050025D02002000C39
:1030C000AE626884EF61E1B22846019AFFF7EAFB3D
:1030D00001240F480F4906E0A2001218403AD26BB3
:1030E000002A04D0641C0A889442F5D90024A10067
:1030F00008184038C563EC702846FFF75FFB0648A8
:10310000006820300470204605B0F0BD9800002013
:10311000CC0800206C3200007400002070B5214CF7
:103120000025214E2168002802D0CA7882421AD197
:103130004D70FDF71CF821684862FFF7C3FE206858
:10314000C178890089194039CD63816A1748FFF732
:1031500081FB216816488D62FFF77CFB002025600B
:10316000FFF72CFB19E013490988884217D8800023
:103170008619403EF46B002C11D02046FFF76EFEFE
:103180002046FFF755FEF5630848A16AFFF762FB8A
:1031900021460748A562FFF75DFB002070BDFF20B8
:1031A00070BD000074000020CC080020F801002051
:1031B000980000206C32000070B500261B4C0028DF
:1031C0000FD01B4A128890421DD88200194810184F
:1031D0004038C56B002D16D0A9702068A84202D0D7
:1031E00013E02068817014484068807888421AD9BA
:1031F00011482168FFF7DCFD206801214170203073
:10320000067000200DE0FF2070BD2846FFF7F8FD96
:103210006878012807D10848FFF72FFB2168203183
:103220000E70FFF7CBFA002070BD00007400002084
:103230006C320000CC080020B40C0020024800686A
:10324000002800D0C078704774000020001BB70031
:10325000000000000000000000000000000000006E
:10326000102700000000000000805101070000004E
:10327000C8000001050001004FC30000000000006D
:10328000E8030000020000005C010000500600009E
:1032900010001C00001BB7000000000080F0FA02C4
:1032A00010270000000000000000000000000000E7
:1032B00000805101F560D3F266B6B7E0F7F65F061D
:1032C0003D2F666B7B0E7F6FE83200000000002010
:1032D00098000000040100008033000098000020E6
:1032E000B00E000020010000E808002000000000EF
:1032F00080F0FA023200000080F0FA0200000100C3
:103300000000FF00000000000000000000000000BE
:1033100000000000000000000000000000000000AD
:10332000000000000100000001000000010000009A
:10333000000000000000000001000000000000008C
:10334000010000000000000000000000000000007C
:10335000000000000101000000000000000000006B
:10336000000000000000000000000000000000005D
:10337000000000000000000000000000000000004D
:0400000500000A2DC0
:00000001FF
